:030000000200C635
:0C00C600787FE4F6D8FD75811502010D6D
:0801C2001200031201B080FBE2
:04001C0002080000D6
:10000300758E017598505389F0438920758DFD7560
:090013008BFDD28ED2AFD2AC22DB
:03002300020026B2
:10002600C0E0C0F0C083C082C0D075D000C000C0A0
:0D00360001C002C003C004C005C006C00721
:10004300309865C298AF99BF4D06750800750900D1
:100053000509E5097002050814240AF8A607E50A4C
:10006300644D702AE50B24CE600F146011146013E5
:100073002403701712018C800D1201A7800812014E
:100083009E80031201951201B980031201B0E509A4
:10009300640C45087012FE7F0CFDFB7A00790A128E
:0800A300015275080075090007
:1000AB00D007D006D005D004D003D002D001D000A9
:0B00BB00D0D0D082D083D0F0D0E03253
:09018C00C2B4D2B5C2B2D2B32252
:09019500C2B4D2B5C2B2C2B32259
:09019E00C2B4C2B5C2B2D2B32250
:0901A700D2B4C2B5D2B2C2B32237
:0901B000C2B4C2B5C2B2C2B3224E
:0801B9007F127EEBDEFEDFFC8D
:0101C100221B
:0D017E00007F087E017DF3DDFEDEFCDFFA70
:01018B002251
:1000D2000201C2E493A3F8E493A34003F68001F281
:1000E20008DFF48029E493A3F85407240CC8C3332F
:1000F200C4540F4420C8834004F456800146F6DFFE
:10010200E4800B010204081020408090001CE47E71
:10011200019360BCA3FF543F30E509541FFEE493F2
:10012200A360010ECF54C025E060A840B8E493A3B9
:10013200FAE493A3F8E493A3C8C582C8CAC583CAE4
:10014200F0A3C8C582C8CAC583CADFE9DEE780BE9C
:0100200000DF
:10015200EF4E6012EF60010EEDBB010B89828A83C4
:10016200F0A3DFFCDEFA2289F05007F709DFFCA9D1
:0C017200F022BBFEFCF309DFFCA9F02228
:00000001FF
