:030000000204D81F
:0C04D800787FE4F6D8FD75814E02051F08
:0E062F0073706565643A256420636D2F730057
:04061F00023A00009B
:05000600D2A8D28822FF
:10059A0012060D1205F4120006E54A60FC750BFFFF
:1005AA00750C06750D2F854B0E854C0F7B007A0056
:1005BA0079221200827B007A00792212000EE4F579
:0305CA004A80D68E
:0300030002063DB5
:0D063D00C0E0053BE53B7002053AD0E0321D
:04062300023C000095
:1005F400758E0175985053890F438920758DFD754B
:090604008BFDD28ED2AFD2AC22E4
:080677008F993099FDC2992210
:10000E00120382FF600C120677740129F9E43AFAA2
:03001E0080EE224F
:0300230002043C98
:10043C00C0E0C0F0C083C082C0D075D000C000C086
:0D044C0001C002C003C004C005C006C00707
:10045900309861C298AF99BF4D06753C00753D0053
:10046900053DE53D7002053C14243EF8A607E53E2E
:10047900B44D27E53F24CE600F1460111460132496
:1004890003701412064A8012120665800D12065C6A
:100499008008120653800312066EE53D640C453C44
:1004A9007012FE7F0CFDFB7A00793E12039B753CAE
:0404B90000753D008D
:1004BD00D007D006D005D004D003D002D001D00093
:0B04CD00D0D0D082D083D0F0D0E0323D
:09064A00C2B4D2B5C2B7D2B3228A
:09065300C2B4D2B5C2B7C2B32291
:09065C00C2B4C2B5C2B7D2B32288
:09066500D2B4C2B5D2B7C2B3226F
:09066E00C2B4C2B5C2B7C2B32286
:07062700014A00024D000032
:10060D00758901758A33758CFED28CC28DD2A9D2B3
:02061D00AF220A
:03000B0002056487
:10056400C0E0C0D0054EE54E7002054D758A337566
:100574008CFEE54EB4D01AE54DB40715754A0175E5
:100584004D00754E00853A4B853B4C753A00753BE2
:0605940000D0D0D0E032DF
:1004E40002059AE493A3F8E493A34003F68001F28F
:1004F40008DFF48029E493A3F85407240CC8C33319
:10050400C4540F4420C8834004F456800146F6DFE7
:10051400E4800B010204081020408090061FE47E52
:10052400019360BCA3FF543F30E509541FFEE493DC
:10053400A360010ECF54C025E060A840B8E493A3A3
:10054400FAE493A3F8E493A3C8C582C8CAC583CACE
:10055400F0A3C8C582C8CAC583CADFE9DEE780BE86
:01062E0000CB
:10038200BB010689828A83E0225002E722BBFE0279
:09039200E32289828A83E49322AC
:10002600E517240BF8E60517227808300702780B47
:10003600E475F0011204060203822000EB7F2ED243
:10004600008018EF540F2490D43440D4FF30040BB2
:10005600EF24BFB41A0050032461FFE518600215AF
:1000660018051BE51B7002051A30070D7808E475A4
:10007600F001120406EF0203F40205CD7403D20761
:100086008003E4C207F5178B088A09890AE4F51884
:10009600F51AF51BE51860077F2012006180F575DB
:1000A60019FFC201C200C202C203C205C206C208CB
:1000B60012002FFF700D3007057F00120072AF1B74
:1000C600AE1A22B4255FC2D5C20412002FFF24D077
:1000D600B40A00501A75F00A781830D50508B6FF2C
:1000E6000106C6A426F620D5047002D20380D924C0
:1000F600CFB41A00EF5004C2E5D204020272D20154
:1001060080C6D20080C0D20280BCD2D580BAD205C9
:1001160080B47F201200612002077401B5180040E8
:10012600F1120026FF12006102009AD208D2068060
:1001360095120026FB120026FA120026F94A4B7089
:100146000679437A037BFF20022EE518602A7E009B
:100156008E827583001203C760060EEE651970F075
:10016600C2D5EBC0E0EAC0E0E9C0E0EE1202B9D0C9
:10017600E0F9D0E0FAD0E0FB120382FF60AAEBC000
:10018600E0EAC0E0E9C0E0120061D0E02401F9D065
:10019600E03400FAD0E0FBE5190460DCD519D9801B
:1001A600877BFF7A0279B5D202809C79108002792A
:1001B60008C206C2088008D2D5790A8004790AC224
:1001C600D5E519047002F519E4FAFDFEFF120026C2
:1001D600FC7B08200113120026FD7B1030000A125A
:1001E6000026FE120026FF7B20EC3382D592D550E6
:1001F60013C3E43000069FFFE49EFEE42001039D46
:10020600FDE49CFCE4CBF8C201EC700CCFCECDCC67
:10021600E824F8F870F38017C3EF33FFEE33FEEDF2
:1002260033FDEC33FCEB33FB994002FB0FD8E9EBD3
:10023600300105F8D0E0C448B201C0E00AEC4D4EEA
:100246004F78207B0070C2EAB5190040BCC0E012AE
:1002560002BBD0F0D0E0200104C4C0E0C4B201C0AB
:10026600F012004AD0F0D5F0EB02009A1204160103
:10027600375301B15801084C01044201B54F01BD85
:0F0286004401BD49011D4301C35501A74601A70E
:100295004501A747036350010C2D01102E01332B97
:1002A500011423013120034C2A00CC480000012B06
:1002B5003F3F3F00790AA2D5200314300509B91044
:1002C500020404B9080104A2D52006025001042045
:1002D50002689202B518005034C0E07F203003193F
:1002E5007F30A20272067205500F120312C202C2BB
:1002F50006C205C2087F30800F300503E9C0E01251
:100305000061300503D0E0F9D0E0B518CC30051711
:100315007F30B9100C1200617F583004077F788058
:1003250003B908031200613002057F2D0200617FC9
:10033500202008F87F2B2006F322920280CF286E1A
:10034500756C6C2900D2011200263001F8C20178C3
:100355001830D50108F60200CC2D5043495812003B
:10036500262403B405004001E490035E9312005275
:0D037500743A120052D2037518040201B14F
:10039B00EF4E6012EF60010EEDBB010B89828A8379
:1003AB00F0A3DFFCDEFA2289F05007F709DFFCA986
:0C03BB00F022BBFEFCF309DFFCA9F022DD
:1003C700BB010CE58229F582E5833AF583E02250EB
:1003D70006E92582F8E622BBFE06E92582F8E22235
:0D03E700E58229F582E5833AF583E493224F
:1003F400BB010689828A83F0225002F722BBFE01E8
:02040400F322E1
:10040600FAE6FB0808E6F925F0F618E6CA3AF622F7
:10041600D083D082F8E4937012740193700DA3A375
:1004260093F8740193F5828883E473740293686089
:06043600EFA3A3A380DF89
:1005CD00EFB40A07740D1205D8740A309811A89962
:1005DD00B8130CC2983098FDA899C298B811F6308E
:0705ED0099FDC299F5992266
:00000001FF
