:030000000200C833
:0C00C800787FE4F6D8FD75811902010F65
:10025300759850438E01538EFB75CCE875CDFF43E3
:070263008E10D2ACD2AF22D5
:0B000E0012029112029112025380FEB8
:04029F000208000051
:10023A00758E017598505389F0438920758DFD7527
:09024A008BFDD28ED2AFD2AC22A2
:03002300020026B2
:10002600C0E0C0F0C083C082C0D075D000C000C0A0
:0D00360001C002C003C004C005C006C00721
:10004300309867C298AF99BF4D06750800750900CF
:100053000509E5097002050814240AF8A607E50A4C
:10006300644D702CE50B24CE6011146013146015DD
:1000730024037019C2B71202AA800D1202C58008A8
:100083001202BC80031202B31202D780031202CE03
:10009300E509640C45087012FE7F0CFDFB7A0079BC
:0A00A3000A12020E7508007509002C
:1000AD00D007D006D005D004D003D002D001D000A7
:0B00BD00D0D0D082D083D0F0D0E03251
:05000300C2B4D2B522D9
:05001E00C2B4C2B522CE
:0502E000C2B2D2B322FE
:0502E500C2B2C2B32209
:0902AA00C2B4D2B5C2B2D2B32233
:0902B300C2B4D2B5C2B2C2B3223A
:0902BC00C2B4C2B5C2B2D2B32231
:0902C500D2B4C2B5D2B2C2B32218
:0902CE00C2B4C2B5C2B2C2B3222F
:0802D7007F127EEBDEFEDFFC6E
:0102DF0022FC
:0D029100007F087E017DF3DDFEDEFCDFFA5C
:01029E00223D
:0602A30001190001180022
:10026A0053890F438910758B33758DFED28EC28FD9
:05027A00D2ABD2AF225F
:10027F00758901758A33758CFED28CC28DD2A9D245
:02028F00AF229C
:03001B000201548B
:10015400C0E0C0F0C083C082C0D075D000C000C071
:1001640001C002C003C004C005C006C0070518755D
:100174008B33758DFEC3E5166480F8E518648098AA
:1001840050051202E080031202E5E518B428037555
:100194001800D007D006D005D004D003D002D00177
:0D01A400D000D0D0D082D083D0F0D0E03297
:03000B000201B13E
:1001B100C0E0C0F0C083C082C0D075D000C000C014
:1001C10001C002C003C004C005C006C007051975FF
:1001D1008A33758CFEC3E5176480F8E5196480984D
:1001E1005005120003800312001EE519B42803759F
:1001F1001900D007D006D005D004D003D002D00119
:0D020100D000D0D0D082D083D0F0D0E03239
:1000D40002000EE493A3F8E493A34003F68001F234
:1000E40008DFF48029E493A3F85407240CC8C3332D
:1000F400C4540F4420C8834004F456800146F6DFFC
:10010400E4800B010204081020408090029FE47EEA
:10011400019360BCA3FF543F30E509541FFEE493F0
:10012400A360010ECF54C025E060A840B8E493A3B7
:10013400FAE493A3F8E493A3C8C582C8CAC583CAE2
:10014400F0A3C8C582C8CAC583CADFE9DEE780BE9A
:0102A9000054
:10020E00EF4E6012EF60010EEDBB010B89828A8307
:10021E00F0A3DFFCDEFA2289F05007F709DFFCA914
:0C022E00F022BBFEFCF309DFFCA9F0226B
:00000001FF
