:030000000200C635
:0C00C600787FE4F6D8FD75811702010D6B
:1001DB0012000E75160A120214120214751614125E
:1001EB00021412021475162812021412021480E360
:0400030002080000EF
:1001FB00758E017598505389F0438920758DFD7567
:09020B008BFDD28ED2AFD2AC22E1
:03002300020026B2
:10002600C0E0C0F0C083C082C0D075D000C000C0A0
:0D00360001C002C003C004C005C006C00721
:10004300309865C298AF99BF4D06750800750900D1
:100053000509E5097002050814240AF8A607E50A4C
:10006300644D702AE50B24CE600F146011146013E5
:1000730024037017120222800D12023D800812021F
:1000830034800312022B12024F8003120246E50949
:10009300640C45087012FE7F0CFDFB7A00790A128E
:0800A30001AF750800750900AA
:1000AB00D007D006D005D004D003D002D001D000A9
:0B00BB00D0D0D082D083D0F0D0E03253
:09022200C2B4D2B5C2B2D2B322BB
:09022B00C2B4D2B5C2B2C2B322C2
:09023400C2B4C2B5C2B2D2B322B9
:09023D00D2B4C2B5D2B2C2B322A0
:09024600C2B4C2B5C2B2C2B322B7
:08024F007F127EEBDEFEDFFCF6
:010257002284
:0D021400007F087E017DF3DDFEDEFCDFFAD9
:0102210022BA
:03000700011700DE
:10000E00758901758A33758CFED28CC28DD2A9D2B8
:02001E00AF220F
:03000B000201529D
:10015200C0E0C0F0C083C082C0D075D000C000C073
:1001620001C002C003C004C005C006C00705177560
:100172008A33758CFEC3E5166480F8E517648098AF
:1001820050051202228003120246E517B4280375B5
:100192001700D007D006D005D004D003D002D0017A
:0D01A200D000D0D0D082D083D0F0D0E03299
:1000D2000201DBE493A3F8E493A34003F68001F268
:1000E20008DFF48029E493A3F85407240CC8C3332F
:1000F200C4540F4420C8834004F456800146F6DFFE
:10010200E4800B0102040810204080900003E47E8A
:10011200019360BCA3FF543F30E509541FFEE493F2
:10012200A360010ECF54C025E060A840B8E493A3B9
:10013200FAE493A3F8E493A3C8C582C8CAC583CAE4
:10014200F0A3C8C582C8CAC583CADFE9DEE780BE9C
:01000A0000F5
:1001AF00EF4E6012EF60010EEDBB010B89828A8367
:1001BF00F0A3DFFCDEFA2289F05007F709DFFCA974
:0C01CF00F022BBFEFCF309DFFCA9F022CB
:00000001FF
