:030000000200C833
:0C00C800787FE4F6D8FD75811902010F65
:10020E0012029F12028A20A70920A60675172075D2
:10021E00162830A70920A60675170C75162820A7D4
:10022E000930A60675172075161430A7D930A6D634
:07023E00E4F517F51680CF6F
:04000E0002080000E4
:10027100758E017598505389F0438920758DFD75F0
:090281008BFDD28ED2AFD2AC226B
:03002300020026B2
:10002600C0E0C0F0C083C082C0D075D000C000C0A0
:0D00360001C002C003C004C005C006C00721
:10004300309867C298AF99BF4D06750800750900CF
:100053000509E5097002050814240AF8A607E50A4C
:10006300644D702CE50B24CE6011146013146015DD
:1000730024037019C2B71202BF800D1202DA80087E
:100083001202D180031202C81202EC80031202E3AF
:10009300E509640C45087012FE7F0CFDFB7A0079BC
:0A00A3000A120245750800750900F5
:1000AD00D007D006D005D004D003D002D001D000A7
:0B00BD00D0D0D082D083D0F0D0E03251
:05000300C2B4D2B522D9
:05001E00C2B4C2B522CE
:0502F500C2B2D2B322E9
:0502FA00C2B2C2B322F4
:0902BF00C2B4D2B5C2B2D2B3221E
:0902C800C2B4D2B5C2B2C2B32225
:0902D100C2B4C2B5C2B2D2B3221C
:0902DA00D2B4C2B5D2B2C2B32203
:0902E300C2B4C2B5C2B2C2B3221A
:0802EC007F127EEBDEFEDFFC59
:0102F40022E7
:0D02B100007F087E017DF3DDFEDEFCDFFA3C
:0102BE00221D
:06001200011900011800B5
:10028A0053890F438910758B33758DFED28EC28FB9
:05029A00D2ABD2AF223F
:10029F00758901758A33758CFED28CC28DD2A9D225
:0202AF00AF227C
:03001B000201548B
:10015400C0E0C0F0C083C082C0D075D000C000C071
:1001640001C002C003C004C005C006C0070518755D
:100174008B33758DFEC3E5166480F8E518648098AA
:1001840050051202F580031202FAE518B42803752B
:100194001800D007D006D005D004D003D002D00177
:0D01A400D000D0D0D082D083D0F0D0E03297
:03000B000201B13E
:1001B100C0E0C0F0C083C082C0D075D000C000C014
:1001C10001C002C003C004C005C006C007051975FF
:1001D1008A33758CFEC3E5176480F8E5196480984D
:1001E1005005120003800312001EE519B42803759F
:1001F1001900D007D006D005D004D003D002D00119
:0D020100D000D0D0D082D083D0F0D0E03239
:1000D40002020EE493A3F8E493A34003F68001F232
:1000E40008DFF48029E493A3F85407240CC8C3332D
:1000F400C4540F4420C8834004F456800146F6DFFC
:10010400E4800B010204081020408090000EE47E7D
:10011400019360BCA3FF543F30E509541FFEE493F0
:10012400A360010ECF54C025E060A840B8E493A3B7
:10013400FAE493A3F8E493A3C8C582C8CAC583CAE2
:10014400F0A3C8C582C8CAC583CADFE9DEE780BE9A
:0100180000E7
:10024500EF4E6012EF60010EEDBB010B89828A83D0
:10025500F0A3DFFCDEFA2289F05007F709DFFCA9DD
:0C026500F022BBFEFCF309DFFCA9F02234
:00000001FF
