:03000000020A5E93
:0C0A5E00787FE4F6D8FD758121020AA51E
:100BF5002D2D2D2D2D52656164792D2D2D2D002D39
:100C05002D2D2D2D58756E4A692D2D2D2D002D2D2F
:100C15002D2D2D47656E5375692D2D2D2D002D2DEF
:0F0C25002D2D2D42695A68616E672D2D2D2D00E2
:100C8C0020A70620A603120DD830A70620A6031213
:100C9C000DEA20A70630A603120DE130A70630A6F8
:050CAC0003120DFC2203
:100CB10020A50620A403120DD830A50620A40312F6
:100CC1000DE120A50630A403120DEA30A50630A4DB
:050CD10003120DFC22DE
:10090900E50C6009120D94E4F50C120D52120B67F7
:100919008F0B8E0A8D098C08E4FFFE7D0C7C42AB9F
:100929000BAA0AA909A80812070460054003020DC9
:10093900D8E4FFFE7D207C41AB0BAA0AA909A808CF
:100949001207045003020DF3120DFC120DA0120D33
:1009590052120B678F148E138D128C11120D941273
:100969000D52120DAC750C02120D52120B678F103D
:100979008E0F8D0E8C0DAB14AA13A912A811120794
:10098900045009120DE1120D7B120DFCAF14AE13C8
:10099900AD12AC11AB10AA0FA90EA80D1207045085
:0B09A90009120DEA120D7B120DFC225A
:1009B400E4F515F516120D2A120D88120D94120D78
:1009C40052120D52E4F50C120AEA120CD67BFF7A8D
:1009D4000B79F57D027F02120C3420952730962482
:1009E400309721E516640245156010120CD67BFF82
:1009F4007A0C79047D027F02120C34751500751689
:100A040002120C8C309527209624309721E5166429
:100A14000345156010120CD67BFF7A0C79137D0206
:100A24007F02120C34751500751603120CB1309543
:100A3400A93096A62097A3E5166401451560101207
:100A44000CD67BFF7A0C79237D027F02120C34755D
:0A0A540015007516011209098080D3
:0C0D880053890F438910E4F58DF58B2290
:0A0DCE00C2A3D2A3120003C2A322A5
:100B6700E4F58DF58B120DCE30A2FDD28E20A2FDBD
:100B7700C28EAF8DEFFEAD8B7C00E42DFDEC3EFC0D
:100B8700E41207827B487AE1798A783F1205FE8F63
:100B97001A8E198D188C177F967E437D8B7C3CAB04
:0A0BA7001AAA19A918A8171205FED2
:010BB1002221
:0C0D6E007F0F7E027DEBDDFEDEFCDFFA75
:010D7A002256
:040003007F02DFFE9B
:0100070022D6
:0D0D5200007F037E1A7DDFDDFEDEFCDFFA90
:010D5F002271
:0C0D7B007F027E0D7DEDDDFEDEFCDFFA68
:010D87002249
:0D0D6000007F047E277DD1DDFEDEFCDFFA82
:010D6D002263
:040E0500021E0000C9
:100D2A005389F0438901758A33758CFED28CC28D42
:050D3A00D2A9D2AF2296
:0C0D9400752000752103E4F51EF51F22F8
:0C0DA000752000752105E4F51EF51F22EA
:0C0DAC00752000752101E4F51EF51F22E2
:03000B00020BB233
:100BB200C0E0C0D075D000C000051FE51F7002055F
:100BC2001E758A33758CFEC3E51F9521E52064806E
:100BD200F8E51E6480985004D2918002C291E51F0C
:100BE2006428451E7006F51EF51FD291D000D0D0A4
:030BF200D0E0321E
:090DD800C2B4D2B5C2B7D2B322F5
:090DE100C2B4D2B5C2B7C2B322FC
:090DEA00C2B4C2B5C2B7D2B322F3
:090DF300D2B4C2B5D2B7C2B322DA
:090DFC00C2B4C2B5C2B7C2B322F1
:10000E0000000000000000000000000000000000E2
:10001E00000000F800000000000000333000000077
:10002E0000100C06100C060000000000000000007E
:10003E0040C07840C0784000043F04043F040400F0
:10004E00007088FC08300000001820FF211E000000
:10005E00F008F000E018000000211C031E211E0015
:10006E0000F00888700000001E212324192721109B
:10007E0010160E000000000000000000000000003E
:10008E00000000E0180402000000000718204000E5
:10009E0000020418E00000000040201807000000D5
:1000AE00404080F0804040000202010F0102020039
:1000BE00000000F0000000000101011F010101001D
:1000CE00000000000000000080B070000000000082
:1000DE00000000000000000000010101010101010B
:1000EE0000000000000000000030300000000000A2
:1000FE000000000080601804006018060100000077
:10010E0000E010080810E000000F102020100F0073
:10011E00001010F8000000000020203F20200000FA
:10012E000070080808887000003028242221300052
:10013E0000300888884830000018202020110E005A
:10014E000000C02010F8000000070424243F240003
:10015E0000F80888880808000019212020110E00D8
:10016E0000E0108888180000000F112020110E00EA
:10017E0000380808C83808000000003F00000000E2
:10018E000070880808887000001C222121221C00A3
:10019E0000E010080810E0000000312222110F00CC
:1001AE00000000C0C0000000000000303000000061
:1001BE0000000080000000000000806000000000D1
:1001CE0000008040201008000001020408102000EA
:1001DE004040404040404000040404040404040035
:1001EE0000081020408000000020100804020100CA
:1001FE00007048080808F0000000003036010000CA
:10020E00C030C828E810E0000718272423140B007C
:10021E000000C038E0000000203C230202273820F6
:10022E0008F8888888700000203F202020110E00DA
:10023E00C0300808080838000718202020100800D1
:10024E0008F808080810E000203F202020100F00BA
:10025E0008F88888E8081000203F20202320180086
:10026E0008F88888E8081000203F200003000000EE
:10027E00C03008080838000007182020221E02008F
:10028E0008F808000008F808203F210101213F204E
:10029E00000808F8080800000020203F2020000079
:1002AE0000000808F8080800C08080807F00000069
:1002BE0008F888C028180800203F200126382000A2
:1002CE0008F8080000000000203F20202020300009
:1002DE0008F8F800F8F80800203F003F003F200023
:1002EE0008F830C00008F808203F200007183F002B
:1002FE00E01008080810E0000F10202020100F005A
:10030E0008F808080808F000203F2101010100004C
:10031E00E01008080810E0000F18242438504F0091
:10032E0008F8888888887000203F2000030C302051
:10033E0000708808080838000038202121221C008F
:10034E00180808F8080818000000203F20000000D8
:10035E0008F808000008F808001F202020201F00C1
:10036E000878880000C83808000007380E01000021
:10037E00F80800F80008F800033C0700073C0300EB
:10038E00081868808068180820302C03032C302051
:10039E000838C800C83808000000203F20000000C0
:1003AE0010080808C8380800203826212020180018
:1003BE00000000FE020202000000007F40404000EC
:1003CE00000C30C000000000000000010638C00024
:1003DE0000020202FE000000004040407F000000CC
:1003EE0000000402020204000000000000000000F1
:1003FE0000000000000000008080808080808080EF
:10040E0000020204000000000000000000000000D6
:10041E0000008080808000000019242222223F20CC
:10042E0008F8008080000000003F112020110E000F
:10043E000000008080800000000E1120202011009E
:10044E00000000808088F800000E112020103F2050
:10045E000000808080800000001F222222221300D4
:10046E00008080F0888888180020203F202000001F
:10047E000000808080808000006B949494936000D4
:10048E0008F8008080800000203F210000203F20DF
:10049E0000809898000000000020203F20200000DF
:1004AE00000000809898000000C08080807F0000CF
:1004BE0008F8000080808000203F24022D302000AC
:1004CE00000808F8000000000020203F2020000057
:1004DE008080808080808000203F20003F20003F71
:1004EE008080008080800000203F210000203F207F
:1004FE000000808080800000001F202020201F0030
:10050E00808000808000000080FFA12020110E005E
:10051E000000008080808000000E112020A0FF804F
:10052E00808080008080800020203F2120000100FC
:10053E000000808080808000003324242424190051
:10054E00008080E0808000000000001F202000005E
:10055E008080000000808000001F202020103F209F
:10056E00808080000080808000010E30080601002F
:10057E0080800080008080800F300C030C300F00D4
:10058E0000808000808080000020312E0E312000FF
:10059E00808080000080808080818E70180601002F
:1005AE0000808080808080000021302C222130004D
:1005BE0000000000807C020200000000003F40406E
:1005CE0000000000FF00000000000000FF0000001F
:1005DE000002027C800000000040403F000000004E
:1005EE0000060101020204040000000000000000E9
:0B0DB800C292D293D29200C29300229C
:0B0DC300C292C293D29200D293002291
:0B0CF400120C6C120CFFAF06120C6C0F
:0F0CFF00D29300D29200A293E433FF00C292007E
:010D0E0022C2
:070C6500AE07120DB87F7805
:100C6C00E4FBFAC292EF33929300D29200C292004C
:0F0C7C00EF25E0FF0BBB00010AEB64084A70E4B0
:010C8B002246
:050D3F00120D44E4FF69
:0E0D4400120C65120CFFE4FF120CF4020DC33A
:0D0D0F00740E2DF58274003CF583E493FF13
:0E0D1C00120C65120CFF7F40120CF4020DC386
:100AEA007FAE120D3F7F10120D447F40120D447FDE
:100AFA00B0120D447F81120D447FFF120D447FA175
:100B0A00120D447FA6120D447FA8120D447F3F1296
:100B1A000D447FC8120D447FD3120D3F7FD5120DAD
:100B2A00447F80120D447FD8120D447F05120D4474
:100B3A007FD9120D447FF1120D447FDA120D447FE2
:100B4A0012120D447FDB120D447F30120D447F8D4B
:0D0B5A00120D447F14120D447FAF020D44B4
:100CD600E4FDED24B0FF120D3F7F10120D44E4FC3D
:0D0CE600E4FF120D1C0CBC80F70DBD08E5ED
:010CF30022DE
:06082C008F1C8D1DA903C5
:10083200E51C25E024AEFF120D44E51D540FFF1206
:100842000D44E51D7804A2E713D8FB2410FF120D16
:1008520044E9FF3395E0FEEF24E0FFEE34FFFEEFC4
:10086200C4F8540FC868FFEEC454F048AD07FCE961
:10087200FF3395E0FEEFC4F8540FC868FFEEC4548E
:10088200F048FEEF2408FFEE34FEFEC3ED9FEC9E1F
:10089200500A120D0F0DBD00010C80D3E51C25E09E
:1008A20024AFFF120D44E51D540FFF120D44E51D48
:1008B2007804A2E713D8FB2410FF120D44E9FF339A
:1008C20095E0FEEFC4F8540FC868FFEEC454F04838
:1008D200FEEF2408FDEE34FEFCE9FF3395E0FEEF67
:1008E200C4F8540FC868FFEEC454F048FEEF241059
:1008F200FFEE34FEFEC3ED9FEC9E500A120D0F0D6B
:06090200BD00010C80D3D2
:0109080022CC
:100C34008F178D188B198A1A891BAB19AA1AA91B2D
:100C4400120805FB601AAD18AF1712082C740125A1
:100C54001BF51BE4351AF51A74082518F51880DA03
:010C6400226D
:1005FE00EC4D6011E8497017ED33EC3304600DE4F7
:10060E00FCFFFEFD22E933E8330470F80207F01216
:10061E0007BB58046009E4CC248150062850090217
:10062E0007FA2840030207F7C0E0EB4A7044B9808E
:10063E0006D0E0FB0207E6EF4E701CBD8008EBFF14
:10064E00EAFEE9FD80EBE98DF0A4FEE5F00206E797
:10065E00E9CDF9EAFEEBFFEF89F0A4FCE5F0CE89D7
:10066E00F0A42EFFE435F0CD89F0A42DFEE435F094
:10067E008067EF4E7005BD80D780C3EF8BF0A4ACC2
:10068E00F0EE8BF0A42CFCE435F0F8EF8AF0A42CFD
:10069E00E5F038FCE433CB8DF0A42CFCE5F03BF810
:1006AE00EE8AF0A42CFCE5F038F8E433CF89F0A400
:1006BE002CFCE5F038CF3400CE89F0A42FFFE5F006
:1006CE003EFEE433C98DF0A42EFEE5F039CD8AF05E
:1006DE00A42FFFE5F03EFEE43DFD33D0E0FB5007D6
:1006EE000BBB000F0207FAEC2CFCEF33FFEE33FED0
:0606FE00ED33FD0207D2FE
:1007040074F8CC6480CCC86480C8F58204604FC39C
:10071400EB9FF5F0EA9E42F0E99D42F0E89C45F03B
:10072400603C501DE5825FFFE582D313CB5BCBF4C5
:100734002B5582FB50280ABA002409B900200880EE
:100744001DE5825BFBE582D313CF5FCFF4C3132F88
:100754005582FF50090EBE00050DBD00010CC3EB10
:100764009FF5F0EA9E42F0E99D42F0E89C45F06076
:0907740007CC4820E701B3EC2298
:10077D0075F020800E75F010800575F0087D007EF7
:10078D00007F003392D530D50312081EEC33401094
:10079D00EF33FFEE33FEED33FDEC33FCD5F0ED2200
:0E07AD00E5F0247EA2D513CC92E7CDCEFF223C
:1007BB00E9D2E7C933E833F892D5EDD2E7CD33EC84
:0707CB0033FC5002B2D522FD
:1007D200EC30E7100FBF000C0EBE00080DBD000488
:1007E2000BEB6014A2D5EB13FCED92E7FD2274FF34
:1007F200FCFDFEFF22E480F8A2D574FF13FC7D808D
:03080200E480EFA0
:100A6A000209B4E493A3F8E493A34003F68001F2E5
:100A7A0008DFF48029E493A3F85407240CC8C3338D
:100A8A00C4540F4420C8834004F456800146F6DF5C
:100A9A00E4800B0102040810204080900E05E47ED9
:100AAA00019360BCA3FF543F30E509541FFEE49351
:100ABA00A360010ECF54C025E060A840B8E493A318
:100ACA00FAE493A3F8E493A3C8C582C8CAC583CA43
:100ADA00F0A3C8C582C8CAC583CADFE9DEE780BEFB
:010E090000E8
:10080500BB010689828A83E0225002E722BBFE02F1
:09081500E32289828A83E4932224
:0E081E00C3E49FFFE49EFEE49DFDE49CFC22EB
:00000001FF
