:030000000200C239
:0C00C200787FE4F6D8FD75811502010975
:05001C0012000380FE4C
:0401A700020800004A
:10000300758E017598505389F0438920758DFD7560
:090013008BFDD28ED2AFD2AC22DB
:03002300020026B2
:10002600C0E0C0F0C083C082C0D075D000C000C0A0
:0D00360001C002C003C004C005C006C00721
:10004300309861C298AF99BF4D06750800750900D5
:100053000509E5097002050814240AF8A607E50A4C
:10006300B44D27E50B24CE600F14601114601324E4
:1000730003701412017A8012120195800D12018C03
:100083008008120183800312019EE509640C450870
:100093007012FE7F0CFDFB7A00790A12014E75087F
:0400A30000750900DB
:1000A700D007D006D005D004D003D002D001D000AD
:0B00B700D0D0D082D083D0F0D0E03257
:09017A00C2B4D2B5C2B2D2B32264
:09018300C2B4D2B5C2B2C2B3226B
:09018C00C2B4C2B5C2B2D2B32262
:09019500D2B4C2B5D2B2C2B32249
:09019E00C2B4C2B5C2B2C2B32260
:1000CE0002001CE493A3F8E493A34003F68001F22C
:1000DE0008DFF48029E493A3F85407240CC8C33333
:1000EE00C4540F4420C8834004F456800146F6DF02
:1000FE00E4800B01020408102040809001A7E47EEA
:10010E00019360BCA3FF543F30E509541FFEE493F6
:10011E00A360010ECF54C025E060A840B8E493A3BD
:10012E00FAE493A3F8E493A3C8C582C8CAC583CAE8
:10013E00F0A3C8C582C8CAC583CADFE9DEE780BEA0
:0101AB000053
:10014E00EF4E6012EF60010EEDBB010B89828A83C8
:10015E00F0A3DFFCDEFA2289F05007F709DFFCA9D5
:0C016E00F022BBFEFCF309DFFCA9F0222C
:00000001FF
